{
  "_format": "hh-sol-artifact-1",
  "contractName": "BlockchainMiddleware",
  "sourceName": "contracts/BlockchainMiddleware.sol",
  "abi": [
    {
      "inputs": [],
      "stateMutability": "nonpayable",
      "type": "constructor"
    },
    {
      "inputs": [
        {
          "internalType": "address",
          "name": "owner",
          "type": "address"
        }
      ],
      "name": "OwnableInvalidOwner",
      "type": "error"
    },
    {
      "inputs": [
        {
          "internalType": "address",
          "name": "account",
          "type": "address"
        }
      ],
      "name": "OwnableUnauthorizedAccount",
      "type": "error"
    },
    {
      "anonymous": false,
      "inputs": [
        {
          "indexed": false,
          "internalType": "address",
          "name": "account",
          "type": "address"
        },
        {
          "indexed": false,
          "internalType": "bool",
          "name": "status",
          "type": "bool"
        }
      ],
      "name": "BlacklistUpdated",
      "type": "event"
    },
    {
      "anonymous": false,
      "inputs": [
        {
          "indexed": true,
          "internalType": "address",
          "name": "previousOwner",
          "type": "address"
        },
        {
          "indexed": true,
          "internalType": "address",
          "name": "newOwner",
          "type": "address"
        }
      ],
      "name": "OwnershipTransferred",
      "type": "event"
    },
    {
      "anonymous": false,
      "inputs": [
        {
          "indexed": true,
          "internalType": "bytes32",
          "name": "requestId",
          "type": "bytes32"
        },
        {
          "indexed": false,
          "internalType": "address",
          "name": "sender",
          "type": "address"
        },
        {
          "indexed": false,
          "internalType": "bool",
          "name": "success",
          "type": "bool"
        }
      ],
      "name": "RequestProcessed",
      "type": "event"
    },
    {
      "anonymous": false,
      "inputs": [
        {
          "indexed": false,
          "internalType": "address",
          "name": "account",
          "type": "address"
        },
        {
          "indexed": false,
          "internalType": "bool",
          "name": "status",
          "type": "bool"
        }
      ],
      "name": "WhitelistUpdated",
      "type": "event"
    },
    {
      "inputs": [
        {
          "internalType": "address",
          "name": "",
          "type": "address"
        }
      ],
      "name": "blacklist",
      "outputs": [
        {
          "internalType": "bool",
          "name": "",
          "type": "bool"
        }
      ],
      "stateMutability": "view",
      "type": "function"
    },
    {
      "inputs": [
        {
          "internalType": "bytes32",
          "name": "_requestId",
          "type": "bytes32"
        }
      ],
      "name": "getRequest",
      "outputs": [
        {
          "internalType": "address",
          "name": "sender",
          "type": "address"
        },
        {
          "internalType": "bytes",
          "name": "data",
          "type": "bytes"
        },
        {
          "internalType": "uint256",
          "name": "timestamp",
          "type": "uint256"
        },
        {
          "internalType": "bool",
          "name": "isProcessed",
          "type": "bool"
        }
      ],
      "stateMutability": "view",
      "type": "function"
    },
    {
      "inputs": [],
      "name": "minTransactionAmount",
      "outputs": [
        {
          "internalType": "uint256",
          "name": "",
          "type": "uint256"
        }
      ],
      "stateMutability": "view",
      "type": "function"
    },
    {
      "inputs": [],
      "name": "owner",
      "outputs": [
        {
          "internalType": "address",
          "name": "",
          "type": "address"
        }
      ],
      "stateMutability": "view",
      "type": "function"
    },
    {
      "inputs": [
        {
          "internalType": "bytes",
          "name": "_data",
          "type": "bytes"
        },
        {
          "internalType": "bytes",
          "name": "_signature",
          "type": "bytes"
        }
      ],
      "name": "processRequest",
      "outputs": [
        {
          "internalType": "bytes32",
          "name": "",
          "type": "bytes32"
        }
      ],
      "stateMutability": "nonpayable",
      "type": "function"
    },
    {
      "inputs": [],
      "name": "renounceOwnership",
      "outputs": [],
      "stateMutability": "nonpayable",
      "type": "function"
    },
    {
      "inputs": [
        {
          "internalType": "bytes32",
          "name": "",
          "type": "bytes32"
        }
      ],
      "name": "requests",
      "outputs": [
        {
          "internalType": "address",
          "name": "sender",
          "type": "address"
        },
        {
          "internalType": "bytes",
          "name": "data",
          "type": "bytes"
        },
        {
          "internalType": "uint256",
          "name": "timestamp",
          "type": "uint256"
        },
        {
          "internalType": "bool",
          "name": "isProcessed",
          "type": "bool"
        }
      ],
      "stateMutability": "view",
      "type": "function"
    },
    {
      "inputs": [
        {
          "internalType": "uint256",
          "name": "_amount",
          "type": "uint256"
        }
      ],
      "name": "setMinTransactionAmount",
      "outputs": [],
      "stateMutability": "nonpayable",
      "type": "function"
    },
    {
      "inputs": [
        {
          "internalType": "address",
          "name": "newOwner",
          "type": "address"
        }
      ],
      "name": "transferOwnership",
      "outputs": [],
      "stateMutability": "nonpayable",
      "type": "function"
    },
    {
      "inputs": [
        {
          "internalType": "address",
          "name": "_address",
          "type": "address"
        },
        {
          "internalType": "bool",
          "name": "_status",
          "type": "bool"
        }
      ],
      "name": "updateBlacklist",
      "outputs": [],
      "stateMutability": "nonpayable",
      "type": "function"
    },
    {
      "inputs": [
        {
          "internalType": "address",
          "name": "_address",
          "type": "address"
        },
        {
          "internalType": "bool",
          "name": "_status",
          "type": "bool"
        }
      ],
      "name": "updateWhitelist",
      "outputs": [],
      "stateMutability": "nonpayable",
      "type": "function"
    },
    {
      "inputs": [
        {
          "internalType": "bytes",
          "name": "_data",
          "type": "bytes"
        },
        {
          "internalType": "uint256",
          "name": "_amount",
          "type": "uint256"
        }
      ],
      "name": "validateRequest",
      "outputs": [
        {
          "internalType": "bool",
          "name": "",
          "type": "bool"
        }
      ],
      "stateMutability": "view",
      "type": "function"
    },
    {
      "inputs": [
        {
          "internalType": "bytes32",
          "name": "_messageHash",
          "type": "bytes32"
        },
        {
          "internalType": "bytes",
          "name": "_signature",
          "type": "bytes"
        },
        {
          "internalType": "address",
          "name": "_signer",
          "type": "address"
        }
      ],
      "name": "verifySignature",
      "outputs": [
        {
          "internalType": "bool",
          "name": "",
          "type": "bool"
        }
      ],
      "stateMutability": "pure",
      "type": "function"
    },
    {
      "inputs": [
        {
          "internalType": "address",
          "name": "",
          "type": "address"
        }
      ],
      "name": "whitelist",
      "outputs": [
        {
          "internalType": "bool",
          "name": "",
          "type": "bool"
        }
      ],
      "stateMutability": "view",
      "type": "function"
    }
  ],
  "bytecode": "0x6080604052662386f26fc1000060045534801561001b57600080fd5b50338061004257604051631e4fbdf760e01b81526000600482015260240160405180910390fd5b61004b81610051565b506100a1565b600080546001600160a01b038381166001600160a01b0319831681178455604051919092169283917f8be0079c531659141344cd1fd0a4f28419497f9722a3daafe3b4186f6b6457e09190a35050565b610e2e806100b06000396000f3fe608060405234801561001057600080fd5b50600436106100ea5760003560e01c80639155e0831161008c578063bfed5ce311610066578063bfed5ce3146101e5578063f2fde38b146101f8578063f9f92be41461020b578063fb1e61ca1461022e57600080fd5b80639155e0831461018c5780639b19251a1461019f5780639d866985146101c257600080fd5b806331cd4199116100c857806331cd4199146101335780633e27f02f14610156578063715018a6146101695780638da5cb5b1461017157600080fd5b80630bf60dbc146100ef5780630d392cd91461011557806317a5d4df1461012a575b600080fd5b6101026100fd366004610a5f565b610241565b6040519081526020015b60405180910390f35b610128610123366004610ae4565b61042a565b005b61010260045481565b610146610141366004610b20565b610496565b604051901515815260200161010c565b610146610164366004610b77565b610536565b610128610551565b6000546040516001600160a01b03909116815260200161010c565b61012861019a366004610ae4565b610565565b6101466101ad366004610bc3565b60016020526000908152604090205460ff1681565b6101d56101d0366004610be5565b6105c9565b60405161010c9493929190610bfe565b6101286101f3366004610be5565b610688565b610128610206366004610bc3565b610695565b610146610219366004610bc3565b60026020526000908152604090205460ff1681565b6101d561023c366004610be5565b6106d3565b3360008181526002602052604081205490919060ff16156102a25760405162461bcd60e51b81526020600482015260166024820152751059191c995cdcc81a5cc8189b1858dadb1a5cdd195960521b60448201526064015b60405180910390fd5b3360008181526001602052604090205460ff166103015760405162461bcd60e51b815260206004820152601760248201527f41646472657373206e6f742077686974656c69737465640000000000000000006044820152606401610299565b60003387874260405160200161031a9493929190610c6c565b60408051601f1981840301815282825280516020918201206080840183523384528251601f8b01839004830281018301909352898352935082810191908a908a90819084018382808284376000920182905250938552505042602080850191909152600160409485018190528684526003825293909220845181546001600160a01b0319166001600160a01b039091161781559184015191928301916103c1915082610d22565b5060408281015160028301556060909201516003909101805460ff191691151591909117905580513381526001602082015282917fd145135a25331e2e1475ed60599c6f4fabebc7c4f7a4f534a74d7faacd3bf00f910160405180910390a29695505050505050565b6104326107da565b6001600160a01b038216600081815260016020908152604091829020805460ff19168515159081179091558251938452908301527ff93f9a76c1bf3444d22400a00cb9fe990e6abe9dbb333fda48859cfee864543d91015b60405180910390a15050565b6040517f19457468657265756d205369676e6564204d6573736167653a0a3332000000006020820152603c81018490526000908190605c016040516020818303038152906040528051906020012090506000806104f38387610807565b509092509050600081600381111561050d5761050d610de2565b14801561052b5750846001600160a01b0316826001600160a01b0316145b979650505050505050565b6000600454821015801561054957508215155b949350505050565b6105596107da565b6105636000610854565b565b61056d6107da565b6001600160a01b038216600081815260026020908152604091829020805460ff19168515159081179091558251938452908301527f6a12b3df6cba4203bd7fd06b816789f87de8c594299aed5717ae070fac781bac910161048a565b600360205260009081526040902080546001820180546001600160a01b0390921692916105f590610c99565b80601f016020809104026020016040519081016040528092919081815260200182805461062190610c99565b801561066e5780601f106106435761010080835404028352916020019161066e565b820191906000526020600020905b81548152906001019060200180831161065157829003601f168201915b50505050600283015460039093015491929160ff16905084565b6106906107da565b600455565b61069d6107da565b6001600160a01b0381166106c757604051631e4fbdf760e01b815260006004820152602401610299565b6106d081610854565b50565b600081815260036020908152604080832081516080810190925280546001600160a01b03168252600181018054606094869485948594919390928401919061071a90610c99565b80601f016020809104026020016040519081016040528092919081815260200182805461074690610c99565b80156107935780601f1061076857610100808354040283529160200191610793565b820191906000526020600020905b81548152906001019060200180831161077657829003601f168201915b5050509183525050600282015460208083019190915260039092015460ff161515604091820152825191830151908301516060909301519199909850919650945092505050565b6000546001600160a01b031633146105635760405163118cdaa760e01b8152336004820152602401610299565b600080600083516041036108415760208401516040850151606086015160001a610833888285856108a4565b95509550955050505061084d565b50508151600091506002905b9250925092565b600080546001600160a01b038381166001600160a01b0319831681178455604051919092169283917f8be0079c531659141344cd1fd0a4f28419497f9722a3daafe3b4186f6b6457e09190a35050565b600080807f7fffffffffffffffffffffffffffffff5d576e7357a4501ddfe92f46681b20a08411156108df5750600091506003905082610969565b604080516000808252602082018084528a905260ff891692820192909252606081018790526080810186905260019060a0016020604051602081039080840390855afa158015610933573d6000803e3d6000fd5b5050604051601f1901519150506001600160a01b03811661095f57506000925060019150829050610969565b9250600091508190505b9450945094915050565b60008083601f84011261098557600080fd5b50813567ffffffffffffffff81111561099d57600080fd5b6020830191508360208285010111156109b557600080fd5b9250929050565b634e487b7160e01b600052604160045260246000fd5b600082601f8301126109e357600080fd5b813567ffffffffffffffff808211156109fe576109fe6109bc565b604051601f8301601f19908116603f01168101908282118183101715610a2657610a266109bc565b81604052838152866020858801011115610a3f57600080fd5b836020870160208301376000602085830101528094505050505092915050565b600080600060408486031215610a7457600080fd5b833567ffffffffffffffff80821115610a8c57600080fd5b610a9887838801610973565b90955093506020860135915080821115610ab157600080fd5b50610abe868287016109d2565b9150509250925092565b80356001600160a01b0381168114610adf57600080fd5b919050565b60008060408385031215610af757600080fd5b610b0083610ac8565b915060208301358015158114610b1557600080fd5b809150509250929050565b600080600060608486031215610b3557600080fd5b83359250602084013567ffffffffffffffff811115610b5357600080fd5b610b5f868287016109d2565b925050610b6e60408501610ac8565b90509250925092565b600080600060408486031215610b8c57600080fd5b833567ffffffffffffffff811115610ba357600080fd5b610baf86828701610973565b909790965060209590950135949350505050565b600060208284031215610bd557600080fd5b610bde82610ac8565b9392505050565b600060208284031215610bf757600080fd5b5035919050565b60018060a01b038516815260006020608081840152855180608085015260005b81811015610c3a5787810183015185820160a001528201610c1e565b50600060a0828601015260a0601f19601f83011685010192505050836040830152821515606083015295945050505050565b6bffffffffffffffffffffffff198560601b16815282846014830137601492019182015260340192915050565b600181811c90821680610cad57607f821691505b602082108103610ccd57634e487b7160e01b600052602260045260246000fd5b50919050565b601f821115610d1d57600081815260208120601f850160051c81016020861015610cfa5750805b601f850160051c820191505b81811015610d1957828155600101610d06565b5050505b505050565b815167ffffffffffffffff811115610d3c57610d3c6109bc565b610d5081610d4a8454610c99565b84610cd3565b602080601f831160018114610d855760008415610d6d5750858301515b600019600386901b1c1916600185901b178555610d19565b600085815260208120601f198616915b82811015610db457888601518255948401946001909101908401610d95565b5085821015610dd25787850151600019600388901b60f8161c191681555b5050505050600190811b01905550565b634e487b7160e01b600052602160045260246000fdfea2646970667358221220f9d75c5d22b0915a959612c5d1fa404692538551feae8c10455635e123d713a064736f6c63430008140033",
  "linkReferences": {},
  "deployedLinkReferences": {}
}